:020000040000FA
:100000000C9439010C9461010C9461010C94610110
:100010000C9461010C9461010C9461010C946101D8
:100020000C9461010C9461010C9461010C946101C8
:100030000C9461010C9461010C9461010C946101B8
:100040000C94D6060C9461010C94A4060C947E06C4
:100050000C9461010C9461010C9461010C94610198
:100060000C9461010C94610108000000BE922449C7
:10007000123EABAAAA2ABECDCCCC4C3E00000080DA
:10008000BEABAAAAAA3E00000000BF000000803F4D
:100090000000000000084178D3BB4387D1133D190D
:1000A0000E3CC3BD4282AD2B3E68EC8276BED98F3A
:1000B000E1A93E4C80EFFFBE01C4FF7F3F0000007E
:1000C000000007634236B79BD8A71A39685618AEA6
:1000D000BAAB558C1D3CB7CC5763BD6DEDFD753E7D
:1000E000F6177231BF000000803F00407A10F35ACB
:1000F00000A0724E18090010A5D4E80000E8764868
:10010000170000E40B54020000CA9A3B000000E113
:10011000F505000080969800000040420F000000A6
:10012000A08601000000102700000000E803000086
:1001300000006400000000000A0000000000010050
:10014000000000002C76D888DC674F0823DFC1DF71
:10015000AE59E1B1B796E5E3E453C63AE651997674
:1001600096E8E6C28426EB898C9B62ED407C6FFCAE
:10017000EFBC9C9F40F2BAA56FA5F490055A2AF7F0
:100180005C936B6CF9676DC11BFCE0E40D47FEF5F9
:1001900020E6B500D0ED902E030094357705008061
:1001A000841E080000204E0A000000C80C333333C0
:1001B000330F986E12831141EF8D2114893BE65560
:1001C00016CFFEE6DB18D1844B381BF77C1D901D43
:1001D000A4BBE424203284725E228100C9F124ECA5
:1001E000A1E53D2700000000240027002A000A683E
:1001F000496E6465783A09000A68756D69643A0960
:10020000000A74656D703A09000A736D6F6B653A88
:1002100009000A636F3A09000A6C70673A09000026
:10022000000000250028002B00000000080002014B
:1002300000000304070000000000000000000000B0
:10024000002300260029000404040404040404021A
:100250000202020202030303030303010204081063
:100260002040800102040810200102040810200030
:10027000200711241FBECFEFD8E0DEBFCDBF22E0A4
:10028000A8E9B1E001C01D92A13AB207E1F711E07F
:10029000A0E0B1E0E8EDFCE202C005900D92A839C3
:1002A000B107D9F711E0C9E3D1E004C02197FE01FD
:1002B0000E947214C833D107C9F70E9498070C94A2
:1002C0006A160C940000CF92DF92EF92FF92CF93C8
:1002D000DF93B0915902A0E08111AB2F80915A02B7
:1002E00090E0880F991FAC01435C5D4FC0905F02A6
:1002F000D0906002E0906102F090620230E020E075
:10030000FA01C591D491E881B90190E080E0EB2336
:10031000EA130AC02F5F3F4F6C157D058E059F05C0
:1003200078F36FEF7FEFCB01DF91CF91FF90EF90EC
:10033000DF90CF900895AF92BF92CF92DF92EF926D
:10034000FF920F931F93CF93DF936C017B018B017F
:10035000040F151FEB015E01AE18BF08C017D107CF
:1003600059F06991D601ED91FC910190F081E02D59
:10037000C6010995892B79F7C501DF91CF911F91AE
:100380000F91FF90EF90DF90CF90BF90AF900895C6
:10039000FC01538D448D252F30E0842F90E0821B8B
:1003A000930B541710F0CF96089501970895FC0110
:1003B000918D828D981761F0A28DAE0FBF2FB11D68
:1003C0005D968C91928D9F5F9F73928F90E00895C0
:1003D0008FEF9FEF0895FC01918D828D981731F07A
:1003E000828DE80FF11D858D90E008958FEF9FEFCE
:1003F0000895FC01918D228D892F90E0805C9F4FA4
:10040000821B91098F739927089585EB91E00E94D3
:10041000F90121E0892B09F420E0822F089580E082
:1004200090E0892B29F00E94050281110C940000B4
:100430000895FC01A48DA80FB92FB11DA35ABF4F79
:100440002C91848D90E001968F739927848FA689D3
:10045000B7892C93A089B1898C91837080648C9327
:10046000938D848D981306C00288F389E02D8081D6
:100470008F7D80830895EF92FF920F931F93CF9308
:10048000DF93EC0181E0888F9B8D8C8D98131AC0CF
:10049000E889F989808185FF15C09FB7F894EE89B6
:1004A000FF896083E889F989808183708064808313
:1004B0009FBF81E090E0DF91CF911F910F91FF905E
:1004C000EF900895F62E0B8D10E00F5F1F4F0F7306
:1004D0001127E02E8C8D8E110CC00FB607FCFACFC1
:1004E000E889F989808185FFF5CFCE010E94190244
:1004F000F1CFEB8DEC0FFD2FF11DE35AFF4FF08292
:100500009FB7F8940B8FEA89FB8980818062CFCFF7
:10051000CF93DF93EC01888D8823B9F0AA89BB893A
:10052000E889F9898C9185FD03C0808186FD0DC025
:100530000FB607FCF7CF8C9185FFF2CF808185FF46
:10054000EDCFCE010E941902E9CFDF91CF9108953E
:10055000CF93DF9390E0FC01E55AFD4F2491895B36
:100560009D4FFC0184918823C9F090E0880F991F6A
:10057000FC01EC51FE4FA591B491FC01E15EFD4FF1
:10058000C591D49161110DC09FB7F8948C912095BD
:1005900082238C938881282328839FBFDF91CF916A
:1005A0000895623051F49FB7F8943C91822F809562
:1005B00083238C93E8812E2BEFCF8FB7F894EC91A7
:1005C0002E2B2C938FBFEACF8E3008F08E50877081
:1005D000806480937C0080917A00806480937A00AC
:1005E00080917A0086FDFCCF80917800909179000F
:1005F00008953FB7F89480919D0190919E01A0913C
:100600009F01B091A00126B5A89B05C02F3F19F00E
:100610000196A11DB11D3FBFBA2FA92F982F882782
:10062000BC01CD01620F711D811D911D42E0660F5D
:10063000771F881F991F4A95D1F708958F929F922F
:10064000AF92BF92CF92DF92EF92FF924B015C018B
:100650000E94F9026B017C010E94F9026C197D096C
:100660008E099F09683E734081059105A8F321E03A
:10067000821A9108A108B10888EEC80E83E0D81E3E
:10068000E11CF11C81149104A104B10429F7FF902D
:10069000EF90DF90CF90BF90AF909F908F90089594
:1006A0002FB7F8946091990170919A0180919B0104
:1006B00090919C012FBF08958F929F92AF92BF920D
:1006C000CF92DF92EF92FF920F931F93CF93DF931E
:1006D000CDB7DEB7C054D1400FB6F894DEBF0FBE21
:1006E000CDBF0E94500300915B0210915C022091EB
:1006F0005D0230915E026B017C01C01AD10AE20AF0
:10070000F30A97018601003D174021053105B0F439
:1007100080916302C05CDE4F0FB6F894DEBF0FBE5F
:10072000CDBFDF91CF911F910F91FF90EF90DF90A0
:10073000CF90BF90AF909F908F90089560935B0291
:1007400070935C0280935D0290935E021092560259
:1007500010925502109254021092530210925202BB
:1007600062E0809157020E94A80261E070E080E0A0
:1007700090E00E941E0361E0809157020E94A8024F
:100780008091570290E0FC01E75DFD4F2491FC0150
:10079000E55AFD4F3491FC01E95BFD4FE491EE23F6
:1007A000D9F0222359F0233009F44BC008F03EC0A1
:1007B000213009F44CC0223009F44DC0F0E0EE0FB6
:1007C000FF1FE15EFD4FA591B4918FB7F894EC91B6
:1007D00030953E233C938FBF8091580285518230E3
:1007E00008F046C08BE291E10197F1F762E0809159
:1007F00057020E94A8028091640290E08230910525
:1008000038F0880F991F880F991F05970197F1F706
:10081000F89480E00E9463016F3F7F4F8F4F9F4F9E
:1008200071F510926302789480E074CF2730B1F0B4
:100830002830D1F0243009F0C1CF809180008F7D25
:1008400003C0809180008F7780938000B7CF84B5FC
:100850008F7784BDB3CF84B58F7DFBCF8091B000FF
:100860008F778093B000AACF8091B0008F7DF9CFB1
:1008700064E170E080E090E00E941E03B7CF81E069
:100880000E9463016F3F7F4F8F4F9F4F51F2CE0108
:1008900001967C015E019FEBA91A9EEFB90A8701C0
:1008A00080E00E946301F8016083718382839383F7
:1008B00081E00E946301F8016483758386839783D6
:1008C000085F1F4FA016B10659F7789430E020E07A
:1008D000F70180809180A280B38044815581668138
:1008E0007781FFEF8F169F06AF06BF0631F04F3FAF
:1008F0008FEF58076807780719F41092630294CFB6
:10090000F90183E0F595E7958A95E1F7EE5AFD4FF9
:100910008081880F84169506A606B70618F1808395
:100920002F5F3F4F98E0E90EF11C2832310581F628
:10093000409156022091520280915302280F332792
:10094000331F80915402280F311D80915502820F70
:10095000932F911D99274817190679F681E0809306
:100960006302D8CE8160DBCFFC0101900020E9F763
:100970003197AF01481B590BBC0185EB91E00C94FA
:100980009B018F929F92AF92BF920F931F93CF9331
:10099000DF93CDB7DEB7A1970FB6F894DEBF0FBED9
:1009A000CDBF19A2423008F44AE08E010F5D1F4FFF
:1009B000842E912CB12CA12CA50194010E945014DD
:1009C000E62FB901CA01EA30F4F4E05DD801EE93F4
:1009D0008D01232B242B252B79F790E080E01097B5
:1009E00019F0CD010E94B404A1960FB6F894DEBFB1
:1009F0000FBECDBFDF91CF911F910F91BF90AF90F0
:100A00009F908F900895E95CE1CFCF93DF930E9490
:100A1000B404EC018CE391E00E94B4048C0F9D1FA0
:100A2000DF91CF9108958F929F92AF92BF92CF9214
:100A3000DF92EF92FF920F931F93CF93DF93EC011E
:100A400005E010E0C12CD12C7601809165020E9456
:100A5000E402BC01990F880B990B0E9412104B0104
:100A60005C01AC019B0160E070EC8FE794E40E94B4
:100A7000661120E030E040EA50E40E947110A501C8
:100A800094010E94D3119B01AC01C701B6010E94E1
:100A900067116B017C0162E370E080E090E00E94EE
:100AA0001E030150110989F620E030E040EA50E4CD
:100AB000C701B6010E94D31120918B0230918C02A4
:100AC00040918D0250918E020E94D3110E9481129A
:100AD0002C813D814E815F810E9466112885398578
:100AE0004A855B850E94D311288139814A815B81C7
:100AF0000E9467119B01AC0160E070E080E291E42C
:100B0000DF91CF911F910F91FF90EF90DF90CF90E9
:100B1000BF90AF909F908F900C94C912CF93DF93AA
:100B2000EC0188819981009711F00E9414151982B7
:100B300018821D821C821B821A82DF91CF91089538
:100B4000FC0180819181009711F00C941415089597
:100B50000F931F93CF93DF93EC01888199810097C6
:100B600059F02A813B812617370730F081E0DF9169
:100B7000CF911F910F9108958B016F5F7F4F0E945E
:100B80009D15009759F0998388831B830A832C81D4
:100B90003D81232B59F7FC011082E8CF80E0E7CF9D
:100BA000CF92DF92EF92FF920F931F93CF93DF9339
:100BB000CDB7DEB7A1970FB6F894DEBF0FBECDBF9D
:100BC0007C01CB01BA01F7011182108213821282DB
:100BD000158214828E010F5F1F4F22E044E00E94B5
:100BE000A60D6C01009771F0FC0101900020E9F75F
:100BF00031978F01081B190BB801C7010E94A80586
:100C0000811112C0C7010E948E05A1960FB6F894FB
:100C1000DEBF0FBECDBFDF91CF911F910F91FF902F
:100C2000EF90DF90CF900895F70115830483B6010C
:100C3000808191810E946316E8CFEF92FF920F931B
:100C40001F93CF93DF93EC017B01CB010E94CB0D6F
:100C50000097A9F00C811D81080F191FB801CE0162
:100C60000E94A805882399F0288139818C819D8173
:100C7000B701820F931F0E94C40D1D830C83CE0108
:100C8000DF91CF911F910F91FF90EF900895CE01CA
:100C90000E948E05F4CFEF92FF920F931F93CF9394
:100CA000DF93EC01FB01E080F180E114F10411F12C
:100CB0000481158101151105A9F08C819D81080F12
:100CC000191FB801CE010E94A805882399F0288138
:100CD00039818C819D81B701820F931F0E94631619
:100CE0001D830C83CE01DF91CF911F910F91FF9057
:100CF000EF900895CE010E948E05F4CF1F920F92BF
:100D00000FB60F9211242F933F934F935F936F93DE
:100D10007F938F939F93AF93BF93EF93FF9385EB55
:100D200091E00E941902FF91EF91BF91AF919F91C5
:100D30008F917F916F915F914F913F912F910F9084
:100D40000FBE0F901F9018951F920F920FB60F9223
:100D500011242F938F939F93EF93FF93E091C501FD
:100D6000F091C6018081E091CB01F091CC0182FD30
:100D70001BC090818091CE018F5F8F732091CF0136
:100D8000821741F0E091CE01F0E0EB54FE4F958FD9
:100D90008093CE01FF91EF919F918F912F910F90B2
:100DA0000FBE0F901F9018958081F4CF1F920F9265
:100DB0000FB60F9211242F933F938F939F93AF936E
:100DC000BF938091990190919A01A0919B01B0915C
:100DD0009C013091980123E0230F2D3758F501969F
:100DE000A11DB11D209398018093990190939A01C0
:100DF000A0939B01B0939C0180919D0190919E01D5
:100E0000A0919F01B091A0010196A11DB11D8093F9
:100E10009D0190939E01A0939F01B093A001BF916B
:100E2000AF919F918F913F912F910F900FBE0F9097
:100E30001F90189526E8230F0296A11DB11DD2CF51
:100E4000E5EBF1E01382128288EE93E0A0E0B0E0DF
:100E500084839583A683B7838EE291E09183808318
:100E600085EC90E09587848784EC90E0978786876F
:100E700080EC90E0918B808B81EC90E0938B828B67
:100E800082EC90E0958B848B86EC90E0978B868B40
:100E9000118E128E138E148E8CE0E6E0F1E0A7E640
:100EA000B2E001900D928A95E1F78CE0E2E1F1E089
:100EB000A3E7B2E001900D928A95E1F78CE0EEE1B4
:100EC000F1E0AFE7B2E001900D928A95E1F7E5E637
:100ED000F2E080E090E0A0E8BFEB86A397A3A0A794
:100EE000B1A717AA16AA84E190E091838083A2E5B6
:100EF000B2E082E015968C9315978BE016968C9352
:100F00001697EDE5F2E0E4911796EC931797E9E474
:100F1000F2E0E4911896EC93189740E85EE360E005
:100F200070E01D964D935D936D937C93509708955B
:100F3000CF93DF93CDB7DEB7E8970FB6F894DEBF57
:100F40000FBECDBF789484B5826084BD84B58160C6
:100F500084BD85B5826085BD85B5816085BD809184
:100F60006E00816080936E001092810080918100FC
:100F700082608093810080918100816080938100F4
:100F8000809180008160809380008091B1008460B6
:100F90008093B1008091B00081608093B000809117
:100FA0007A00846080937A0080917A0082608093D6
:100FB0007A0080917A00816080937A0080917A0033
:100FC000806880937A001092C100E091C501F09191
:100FD000C60182E08083E091C101F091C2011082DC
:100FE000E091C301F091C40180E180831092CD01B2
:100FF000E091C901F091CA0186E08083E091C701C8
:10100000F091C801808180618083E091C701F091F7
:10101000C801808188608083E091C701F091C80198
:10102000808180688083E091C701F091C801808150
:101030008F7D808360E085E10E94A8020AE010E0D5
:10104000C12CD12C7601809165020E94E402BC0182
:10105000990F880B990B0E9412104B015C01AC0197
:101060009B0160E070EC8FE794E40E94661120E041
:1010700030E040EA50E40E947110A50194010E9402
:10108000D3119B01AC01C701B6010E9467116B012E
:101090007C0162E370E080E090E00E941E0301505A
:1010A000110989F620E030E040E251E4C701B601C1
:1010B0000E94D3112EEA37E44DE151E40E94D3118E
:1010C00060938B0270938C0280938D0290938E02BA
:1010D0008FE391E00E94B404C0908B02D0908C0208
:1010E000E0908D02F0908E02A7019601C701B60133
:1010F0000E945F13882309F48FC084E491E00E946A
:10110000B40480E591E00E94050562E080915702F9
:101110000E94A8020E945003605D774081099109F6
:1011200060935B0270935C0280935D0290935E0219
:1011300087E38093640200E010E020E030E0A90142
:1011400060918B0270918C0280918D0290918E0241
:101150000E940B1087FFF2C086E591E00E94050512
:10116000C12CD12C7601C092B101D092B201E09293
:10117000B301F092B40120E030E0A90160918B024C
:1011800070918C0280918D0290918E020E940B10C2
:1011900087FF08C186E591E00E940505C12CD12C8E
:1011A0007601C092AD01D092AE01E092AF01F09213
:1011B000B00120E030E0A90160918B0270918C02B7
:1011C00080918D0290918E020E940B1087FF1EC1AC
:1011D00086E591E00E940505C12CD12C7601C092D4
:1011E000A901D092AA01E092AB01F092AC010E9459
:1011F0005C03882351F0809158028C3009F49BC124
:1012000008F038C18B3009F44FC1C12CD12C90ECBF
:10121000E92E9FE7F92E72C146015701E894B7F80D
:101220002FEF3FEF4FE75FE7C501B4010E945F1367
:1012300081110DC02FEF3FEF4FE75FE7C501B4010C
:101240000E940B1018161CF488E491E058CF2FEF81
:101250003FEF4FE75FE4C701B6010E947412181612
:101260001CF48CE491E04BCF2FEF3FEF4FE75FECA6
:10127000C701B6010E940B1087FDF3CF20E030E0DC
:10128000A901C701B6010E940B1087FF09C06DE2DA
:1012900085EB91E00E943B02F7FAF094F7F8F094A6
:1012A0002AE037ED43EA5BE3C701B6010E9467110C
:1012B0004B015C010E9445126B017C010E941010E1
:1012C0009B01AC01C501B4010E9466114B015C0198
:1012D0004AE0C701B6010E94C1046EE285EB91E0CD
:1012E0000E943B0220E030E040E251E4C501B4013D
:1012F0000E9471104B015C010E9445126B01F12CA0
:10130000E12C4AE0C701B6010E94C104C701B60141
:101310000E9410109B01AC01C501B4010E9466112E
:1013200020E030E040E251E40E9471100E9445123A
:1013300090E080E04AE00E94C104E3CE0E945003A6
:10134000AB01BC0180919B0290919C02805F984D03
:10135000092E000CAA0BBB0B481759076A077B071D
:1013600090F4C0908F02D0909002E0909102F090A3
:10137000920220E030E0A901C701B6010E94741278
:1013800018160CF4F0CE87E692E00E9413056B016C
:101390007C01C0928F02D0929002E0929102F09272
:1013A0009202E1CE0E945003AB01BC0180919B02EE
:1013B00090919C02805F984D092E000CAA0BBB0BEC
:1013C000481759076A077B0790F4C0909302D090A2
:1013D0009402E0909502F090960220E030E0A9019E
:1013E000C701B6010E94741218160CF4DACE83E716
:1013F00092E00E9413056B017C01C0929302D0928F
:101400009402E0929502F0929602CBCE0E94500395
:10141000AB01BC0180919B0290919C02805F984D32
:10142000092E000CAA0BBB0B481759076A077B074C
:1014300090F4C0909702D0909802E0909902F090BA
:101440009A0220E030E0A901C701B6010E9474129F
:1014500018160CF4C4CE8FE792E00E9413056B01BE
:101460007C01C0929702D0929802E0929902F09289
:101470009A02B5CE8551823008F0C7CEB0905402A2
:101480006B2D70E0762F662766277F778091550257
:10149000682B90E080E00E9410102DEC3CEC4CECAE
:1014A0005DE30E94711063C06091540270E090E0AF
:1014B00080E00E9410104B015C01F0905502F7FE95
:1014C0000AC0AC019B0160E070E080E89FEB0E94E5
:1014D00066114B015C016F2D6F7070E090E080E051
:1014E0000E9412102DEC3CEC4CEC5DE30E9471105C
:1014F000A50194010E9467116B017C01C092A501B6
:10150000D092A601E092A701F092A8010E945C038C
:10151000882351F0809158028B3030F08D3080F16B
:101520008551823008F48DC2812C912C80ECA82E3C
:101530008FE7B82E43C0B09054026B2D70E090E05E
:1015400080E00E9410106B017C01609155026F7069
:1015500070E090E080E00E9412102DEC3CEC4CEC2E
:101560005DE30E947110A70196010E9467116B0153
:101570007C01B7FEC3CFF7FAF094F7F8F094BECF32
:101580006091530270E090E080E00E9412102DEC18
:101590003CEC4CEC5DE30E9471104B015C016091EE
:1015A000520270E090E080E00E9412109B01AC01BA
:1015B000C501B4010E9467114B015C018092A10139
:1015C0009092A201A092A301B092A40120E030E089
:1015D00048E852E4C701B6010E9466112AE939E9D8
:1015E00049E95FE30E9471102B013C0120E030E0EB
:1015F00044E752E4C701B6010E9467119B01AC01A8
:10160000C301B2010E9467112B013C0122E133E8C2
:1016100040EC5DE3C501B4010E9471109B01AC0177
:10162000C301B2010E94671120E030E040E05FE3B7
:101630000E9471102B013C0120E030E04EE952E4A1
:101640000E94741218160CF023C1A7019601C7015D
:10165000B6010E9471102B013C01A5019401C50146
:10166000B4010E9471106DAB7EAB8FAB98AF21E1DE
:1016700033E243E050E4C701B6010E94711029E152
:1016800034E849E252E40E94661169AB7AAB8BAB55
:101690009CAB26E13BE442E251E4C501B4010E9467
:1016A00071109B01AC0169A97AA98BA99CA90E9420
:1016B000671169AB7AAB8BAB9CAB28E436E246E6AC
:1016C0005EEBC701B6010E947110A50194010E9452
:1016D00071109B01AC0169A97AA98BA99CA90E94F0
:1016E000671169AB7AAB8BAB9CAB20EE3FE040EE71
:1016F0005BEBC301B2010E9471109B01AC0169A9AF
:101700007AA98BA99CA90E94671169AB7AAB8BABB4
:101710009CAB28EF37E840E65DEB6DA97EA98FA969
:1017200098AD0E9471109B01AC0169A97AA98BA99F
:101730009CA90E94671169AB7AAB8BAB9CAB2CEA7E
:101740003DE041EA5AE3C301B2010E947110A501D4
:1017500094010E9471109B01AC0169A97AA98BA91F
:101760009CA90E94671169AB7AAB8BAB9CAB28EC50
:101770003FE84FE55AE3C701B6010E9471102DA959
:101780003EA94FA958AD0E9471109B01AC0169A9F7
:101790007AA98BA99CA90E94671169AB7AAB8BAB24
:1017A0009CAB21EF3BE845E056EBC301B2010E9440
:1017B00071102DA93EA94FA958AD0E9471109B012F
:1017C000AC0169A97AA98BA99CA90E9467112B0178
:1017D0003C0120E030E040E551E4C501B4010E9445
:1017E0000B1087FF49C120E030E040EA52E4C70116
:1017F000B6010E94741287FD3FC120E030E040EE48
:1018000052E4C701B6010E940B1018160CF492C1E5
:10181000A501940160E070E080E591E40E9466110A
:1018200020E030E040E85EE30E9471104B015C0173
:1018300020E030E04EEB52E4C701B6010E94661191
:101840006B017C0120E030E0A9010E94741218169F
:101850000CF009C1A701960160E070E088E891E40E
:101860000E9466112EE33DEE40E75DE30E94711099
:101870000E941F139B01AC01C501B4010E947110AD
:101880009B01AC01C301B2010E9466112B013C0116
:10189000B301A201CE0101960E94D0054091A101A1
:1018A0005091A2016091A3017091A401CE0107960D
:1018B0000E94D0054091A5015091A6016091A70119
:1018C0007091A801CE010D960E94D0054091A9010A
:1018D0005091AA016091AB017091AC01CE01439689
:1018E0000E94D0054091AD015091AE016091AF01D1
:1018F0007091B001CE0149960E94D0054091B1018E
:101900005091B2016091B3017091B401CE014F9634
:101910000E94D0051CA61BA61EA61DA618AA1FA6BF
:1019200066E070E0CE018B960E94A8058111EFC0A1
:10193000CE018B960E948E051EA21DA218A61FA284
:101940001AA619A6EBA4FCA4E114F10469F0CFA433
:10195000D8A8B601CE0185960E94A8058111E2C0E3
:10196000CE0185960E948E05BE01615E7F4FCE013D
:1019700085960E944B0662E172E00E941D06BE0140
:10198000675E7F4F0E944B0669E072E00E941D0671
:10199000BE016D5E7F4F0E944B0661E072E00E94C7
:1019A0001D06BE01635F7F4F0E944B0668EF71E02A
:1019B0000E941D06BE01695F7F4F0E944B066EEEBE
:1019C00071E00E941D06BE016F5F7F4F0E944B06B3
:1019D000FC01448155816081718185EB91E00E9419
:1019E0009B018CE391E00E94B404CE0185960E9495
:1019F000A005CE018B960E94A005CE014F960E94B5
:101A0000A005CE0149960E94A005CE0143960E94F2
:101A1000A005CE010D960E94A005CE0107960E945A
:101A2000A005CE0101960E94A0050115110509F43B
:101A300084CB0E940502882309F47FCB0E9400001A
:101A40007CCB6091520270915302762767277627EC
:101A500090E080E00E9410102DEC3CEC4CEC5DE33B
:101A60000E947110A9CD20E030E048E851E4C701A0
:101A7000B6010E946711F6CE20E030E04AEA52E457
:101A8000C501B4010E94741218160CF001CF20E0B9
:101A900030E040EA52E4C701B6010E94741287FDAB
:101AA000F7CE20E030E04EEA52E4C701B6010E94D2
:101AB0000B1018160CF4ECCE20E030E04AEA52E4A9
:101AC000C501B4010E9466112DEC3CEC4CEC5DE3C9
:101AD0000E9471104B015C01A701960160E070E06B
:101AE0008EEA92E40E9466112DEC3CEC4CE45EE33D
:101AF0000E9471109B01AC01C501B4010E947110DC
:101B00009B01AC01C301B2010E946711BFCE86E008
:101B100090E098AB8FA768E172E08BA59CA50E942E
:101B2000C40D0ACFDAA6C9A6B7018DA19EA10E9455
:101B300063161ACF20E030E04AEA52E4C501B4014E
:101B40000E94741218160CF4ACCFA2CEEF920F9331
:101B50001F93CF93DF93E80134E047FD34E1042E77
:101B6000000C550B57FF03C0519541955109E32EC9
:101B7000022F242FAE010E94D40DCE01DF91CF9110
:101B80001F910F91EF900895FB01DC0105900D92DC
:101B90000020E1F70895FC0105900020E9F7809509
:101BA00090958E0F9F1F0895A9E0B0E0EAEDFDE04B
:101BB0000C9435116A01F22EB02E102FFBE3AF2EDC
:101BC000A01608F41BE31F5F012F27E0AE014F5F53
:101BD0005F4F0E94330FBC018981982F997091301B
:101BE00009F43FC09BE2E1FC04C09E2D9170E0FC33
:101BF0003AC05E2D5071E82FE87083FF46C084E044
:101C0000911101C083E0EF2DE81B8F1508F0E0E093
:101C1000D6018E2F20E2552351F1992329F0D601C8
:101C20009C93C60101966C0196012D5F3F4FE2FE29
:101C300024C08EE4D6018C9391E411969C93119765
:101C400012968C93D9018E2F90E281111BC0E20F66
:101C5000F32FF11D10828EEF9FEF2996ECE00C948C
:101C600051119DE2C6CF90E2C4CF2D9381508111D6
:101C7000FCCFCE0ED11CE0E0D0CF8EE6D6018C9307
:101C800091E6DBCF9D938150E0CF482F447082FFD7
:101C90003DC084E0911101C083E08F1510F4EF2D59
:101CA000E81BD6018E2F20E2552309F1992329F054
:101CB000D6019C93C60101966C0196012D5F3F4FA2
:101CC000E2FE1BC089E4D6018C938EE411968C93BE
:101CD000119786E412968C93D9018E2F90E2882377
:101CE00009F4B5CF9D938150FACF2D938150811186
:101CF000FCCFCE0ED11CE0E0D9CF89E6D6018C9383
:101D00008EE611968C93119786E6E4CF9B0177FFC0
:101D100002C030E020E0A1E0B0E0911102C0B0E0EC
:101D2000A0E0F9013196AE0FBF1F8B2C912CBB2088
:101D300009F461C05401EFEFAE1ABE0AAA0DBB1D33
:101D4000FA161B0619F014F04F2D4A1B511188C0CA
:101D5000E3FC59C07601A42FB0E2A1114FC0C40E1C
:101D6000D11C992309F45BC040E0D6011196F6011D
:101D700090836D01552309F448C0012F060F9A8105
:101D8000582F507184FF03C0913309F4015010168D
:101D90000CF047C0093008F008E0EEE2FE2E5B01CF
:101DA000A01AB10885019194819491082F3F3207C0
:101DB00029F4D601FC92F60131966F016217730780
:101DC00094F1021713077CF5DB01A21BB30BAA24C5
:101DD000A394B12CAC0EBD1EAA0DBB1D11968C9107
:101DE00021503109D601119628153905F4F0F60174
:101DF00080836D01DBCFB12CA12CA0CFF701B19373
:101E00007F01A150AACF9111B0CFD601942F50E3FA
:101E100002C05D9391509111FCCFC40ED11C40E0E3
:101E2000ACCF01E0BACF80E3DBCF6217730731F4A8
:101E3000963388F4953311F4552369F0F6018083C5
:101E4000FD01842F90E2811108C0A40FB11D1C92E6
:101E500090E080E002CF81E3F1CF91938150F3CF06
:101E6000911183CF8ACF283008F027E03327DA0199
:101E7000990F311D87FD916000966105710539F458
:101E800032602E5F3D9330E32A95E1F708959F3F3E
:101E900030F080387105610509F03C5F3C5F3D938F
:101EA000913008F08068911DDF93CF931F930F93BB
:101EB000FF92EF92192F987F9695E92F9695969518
:101EC000E90FFF27EC5BFE4F99273327EE24FF2411
:101ED000A701E70105900894079428F4360FE71E40
:101EE000F81E491F511D660F771F881F991F069402
:101EF000A1F70590079428F4E70EF81E491F561F16
:101F0000C11D770F881F991F661F0694A1F70590C2
:101F1000079428F4F80E491F561FC71FD11D880FBC
:101F2000991F661F771F0694A1F70590079420F468
:101F3000490F561FC71FD81F990F661F771F881F8D
:101F40000694A9F784911095177041F0D695C7951E
:101F500057954795F794E7941A95C1F7EAEEF0E0A4
:101F600068941590159135916591959105907FE252
:101F70007395E118F10A430B560BC90BD009C0F752
:101F8000E10CF11E431F561FC91FD01D7EF4703394
:101F900011F48A95E6CFE894015030F0080F0AF466
:101FA0000027021708F4202F2395022F7A3328F0F8
:101FB00079E37D932A95E9F710C07D932A9589F6F8
:101FC000069497956795379517951794E118F10A38
:101FD000430B560BC90BD00998F023957E9173954E
:101FE0007A3308F070E37C932013B8F77E91706128
:101FF0007D9330F0839571E37D9370E32A95E1F74B
:102000001124EF90FF900F911F91CF91DF919927AD
:1020100087FD909508950E944D1008F481E0089581
:10202000E89409C097FB3EF4909580957095619572
:102030007F4F8F4F9F4F9923A9F0F92F96E9BB2728
:102040009395F695879577956795B795F111F8CFA4
:10205000FAF4BB0F11F460FF1BC06F5F7F4F8F4F0F
:102060009F4F16C0882311F096E911C0772321F005
:102070009EE8872F762F05C0662371F096E8862F9D
:1020800070E060E02AF09A95660F771F881FDAF7F4
:10209000880F9695879597F90895990F0008550F21
:1020A000AA0BE0E8FEEF16161706E807F907C0F0DE
:1020B00012161306E407F50798F0621B730B840BE6
:1020C000950B39F40A2661F0232B242B252B21F4C0
:1020D00008950A2609F4A140A6958FEF811D811D60
:1020E00008950E9484100C94F5100E94E71038F0B7
:1020F0000E94EE1020F0952311F00C94DE100C9449
:10210000E41011240C9429110E94061170F3959F7C
:10211000C1F3950F50E0551F629FF001729FBB27DE
:10212000F00DB11D639FAA27F00DB11DAA1F649F7A
:102130006627B00DA11D661F829F2227B00DA11D2D
:10214000621F739FB00DA11D621F839FA00D611DB3
:10215000221F749F3327A00D611D231F849F600DD4
:10216000211D822F762F6A2F11249F5750409AF0FD
:10217000F1F088234AF0EE0FFF1FBB1F661F771F89
:10218000881F91505040A9F79E3F510580F00C9454
:10219000DE100C9429115F3FE4F3983ED4F386954A
:1021A00077956795B795F795E7959F5FC1F7FE2BF4
:1021B000880F911D9695879597F9089597F99F67D0
:1021C00080E870E060E008959FEF80EC08950024BF
:1021D0000A941616170618060906089500240A948C
:1021E00012161306140605060895092E0394000C12
:1021F00011F4882352F0BB0F40F4BF2B11F460FFA1
:1022000004C06F5F7F4F8F4F9F4F089557FD9058C9
:10221000440F551F59F05F3F71F04795880F97FBAA
:10222000991F61F09F3F79F0879508951216130664
:102230001406551FF2CF4695F1DF08C01616170693
:102240001806991FF1CF86957105610508940895C8
:10225000E894BB2766277727CB0197F908952F923B
:102260003F924F925F926F927F928F929F92AF9226
:10227000BF92CF92DF92EF92FF920F931F93CF9373
:10228000DF93CDB7DEB7CA1BDB0B0FB6F894DEBF0A
:102290000FBECDBF09942A88398848885F846E8430
:1022A0007D848C849B84AA84B984C884DF80EE807A
:1022B000FD800C811B81AA81B981CE0FD11D0FB683
:1022C000F894DEBF0FBECDBFED0108955058BB2777
:1022D000AA270E947E110C94F5100E94E71038F096
:1022E0000E94EE1020F039F49F3F19F426F40C946C
:1022F000E4100EF4E095E7FB0C94DE10E92F0E9449
:10230000061158F3BA17620773078407950720F080
:1023100079F4A6F50C9428110EF4E0950B2EBA2F43
:10232000A02D0B01B90190010C01CA01A0011124DB
:10233000FF27591B99F0593F50F4503E68F11A1687
:10234000F040A22F232F342F4427585FF3CF469518
:1023500037952795A795F0405395C9F77EF41F163A
:10236000BA0B620B730B840BBAF09150A1F0FF0F04
:10237000BB1F661F771F881FC2F70EC0BA0F621FF0
:10238000731F841F48F4879577956795B795F795E0
:102390009E3F08F0B0CF9395880F08F09927EE0F75
:1023A0009795879508950E94E7110C94F5100E9467
:1023B000EE1058F00E94E71040F029F45F3F29F03A
:1023C0000C94DE1051110C9429110C94E4100E940D
:1023D000061168F39923B1F3552391F3951B550B1F
:1023E000BB27AA2762177307840738F09F5F5F4FE8
:1023F000220F331F441FAA1FA9F335D00E2E3AF027
:10240000E0E832D091505040E695001CCAF72BD03E
:10241000FE2F29D0660F771F881FBB1F261737078F
:102420004807AB07B0E809F0BB0B802DBF01FF27C1
:1024300093585F4F3AF09E3F510578F00C94DE10B0
:102440000C9429115F3FE4F3983ED4F38695779579
:102450006795B795F7959F5FC9F7880F911D96957A
:10246000879597F90895E1E0660F771F881FBB1FD6
:10247000621773078407BA0720F0621B730B840B83
:10248000BA0BEE1F88F7E09508950E940E1188F0B0
:102490009F5798F0B92F9927B751B0F0E1F0660F28
:1024A000771F881F991F1AF0BA95C9F714C0B13069
:1024B00091F00E942811B1E008950C942811672F23
:1024C000782F8827B85F39F0B93FCCF38695779598
:1024D0006795B395D9F73EF4909580957095619581
:1024E0007F4F8F4F9F4F08950E944D1008F48FEF3C
:1024F000089516F00C949E130C94E41068940C94B8
:10250000DE100E940E11A8F39923C1F3AEF3DF93FE
:10251000CF931F930F93FF92C92FDD2788232AF0B3
:102520002197660F771F881FDAF720E030E040E838
:102530005FEB9FE3883920F0803E38F021968F775B
:102540000E946711E8E6F0E004C00E946711E5E927
:10255000F0E00E94B3138B01BE01EC01FB2E6F571C
:1025600071097595771F880B990B0E94121028E14D
:1025700032E741E35FE30E948410AF2D9801AE0182
:10258000FF900F911F91CF91DF910E947E110C94CB
:10259000F510FA01EE0FFF1F309621053105A1F16C
:1025A0006115710561F48038BFE39B0749F16894B8
:1025B0009038810561F08038BFEF9B0741F0992387
:1025C0004AF5FF3FE1053105210519F1E89408942A
:1025D000E795D901AA2329F4AB2FBE2FF85FD0F3DA
:1025E00010C0FF5F70F4A695E0F7F73950F019F0CE
:1025F000FF3A38F49F779F930DD00F9007FC9058C7
:10260000089546F00C94E41060E070E080E89FE3E9
:1026100008954FE79F775F934F933F932F930E94C7
:1026200081122F913F914F915F910E9471100C94F4
:102630006C1319F416F40C94E4100C949E130E947D
:102640000E11B8F39923C9F3B6F39F57550B87FFC3
:102650000E94AC130024A0E640EA900180585695F1
:10266000979528F4805C660F771F881F20F0261747
:102670003707480730F4621B730B840B202931297C
:102680004A2BA69517940794202531254A2758F7F9
:10269000660F771F881F20F026173707480730F48A
:1026A000620B730B840B200D311D411DA09581F72A
:1026B000B901842F9158880F9695879508950E94A7
:1026C0004D10880B990B089529F416F00C94DE1028
:1026D0000C9428110C94E4100E940E11A8F3963863
:1026E000A0F707F80F92E8942BE33AEA48EB5FE78C
:1026F0000E9487100F920F920F924DB75EB70F9204
:102700000E941C14E2ECF0E00E94B3134F915F9121
:10271000EF91FF91E595EE1FFF1F49F0FE57E0682E
:102720004427EE0F441FFA95E1F74195550B0E949F
:10273000E6130F9007FE0C94DA1308959F3F31F0D3
:10274000915020F4879577956795B795880F911DDF
:102750009695879597F9089591505040660F771F89
:10276000881FD2F70895DF93CF931F930F93FF92A3
:10277000EF92DF927B018C01689406C0DA2EEF01A4
:102780000E948410FE01E894A59125913591459110
:102790005591A6F3EF010E947E11FE019701A80159
:1027A000DA9469F7DF90EF90FF900F911F91CF912E
:1027B000DF9108959B01AC0160E070E080E89FE349
:1027C0000C94D3110C94DE100C949E130E940E11E5
:1027D000D8F39923C9F3940F511DA3F3915050409E
:1027E00094F059F0882332F0660F771F881F9150BC
:1027F0005040C1F79E3F51052CF7880F911D9695CB
:10280000879597F908955F3FACF0983E9CF0BB2701
:10281000869577956795B79508F4B1609395C1F75C
:10282000BB0F58F711F460FFE8CF6F5F7F4F8F4FFA
:102830009F4FE3CF0C942911FA01DC01AA0FBB1FB3
:102840009B01AC01BF5728F4222733274427507837
:1028500020C0B75190F4AB2F0024469537952795AB
:10286000011CA395D2F3002071F0220F331F441FE7
:10287000B395DAF30ED00C94661161307105A0E8BF
:102880008A07B94630F49B01AC0166277727882771
:102890009078309621F020833183428353830895CA
:1028A000A1E21A2EAA1BBB1BFD010DC0AA1FBB1F54
:1028B000EE1FFF1FA217B307E407F50720F0A21BC6
:1028C000B30BE40BF50B661F771F881F991F1A9433
:1028D00069F760957095809590959B01AC01BD015D
:1028E000CF010895EE0FFF1F0590F491E02D09949C
:1028F0000F931F93CF93DF938230910510F482E002
:1029000090E0E0919F02F091A00230E020E0B0E082
:10291000A0E0309799F42115310509F44AC0281B2D
:10292000390B24303105D8F58A819B8161157105F9
:1029300089F1FB0193838283FE0111C040815181A3
:102940000281138148175907E0F04817590799F495
:10295000109761F012960C93129713961C9332966F
:10296000CF01DF91CF911F910F91089500939F02A6
:102970001093A002F4CF2115310551F042175307EF
:1029800038F0A901DB019A01BD01DF01F801C1CFD7
:10299000EF01F9CF9093A00280939F02CDCFFE016B
:1029A000E20FF31F819391932250310939832883D9
:1029B000D7CF20919D0230919E02232B41F420918C
:1029C00002013091030130939E0220939D022091D9
:1029D0000001309101012115310541F42DB73EB7B9
:1029E0004091040150910501241B350BE0919D029B
:1029F000F0919E02E217F307A0F42E1B3F0B28175D
:102A0000390778F0AC014E5F5F4F2417350748F067
:102A10004E0F5F1F50939E0240939D0281939193AE
:102A20009FCFF0E0E0E09CCFCF93DF930097E9F0F9
:102A3000FC01329713821282A0919F02B091A002F2
:102A4000ED0130E020E01097A1F420813181820F68
:102A5000931F20919D0230919E022817390709F09B
:102A600061C0F0939E02E0939D02DF91CF910895A3
:102A7000EA01CE17DF07E8F54A815B819E01411527
:102A80005105B1F7E901FB83EA8349915991C40FDC
:102A9000D51FEC17FD0761F4808191810296840FA8
:102AA000951FE90199838883828193819B838A831F
:102AB000F0E0E0E012968D919C9113970097B9F5A4
:102AC0002D913C911197CD010296820F931F209179
:102AD0009D0230919E022817390739F6309751F53B
:102AE0001092A00210929F02B0939E02A0939D02AA
:102AF000BCCFD383C28340815181840F951FC817F7
:102B0000D90761F44E5F5F4F88819981480F591F43
:102B1000518340838A819B81938382832115310570
:102B200009F0B0CFF093A002E0939F029ECFFD0189
:102B3000DC01C0CF13821282D7CFB0E0A0E0E3EA7D
:102B4000F5E10C9431118C01009751F4CB010E94F6
:102B500078148C01C801CDB7DEB7E0E10C944D11BB
:102B6000FC01E60FF71F9C0122503109E217F30721
:102B700008F49DC0D901CD91DC911197C617D707F4
:102B800098F0C530D10530F3CE010497861797072A
:102B900008F3C61BD70B2297C193D1936D937C93F7
:102BA000CF010E941415D6CF5B01AC1ABD0A4C01AF
:102BB0008C0E9D1EA0919F02B091A002512C412C21
:102BC000F12CE12C109731F580919D0290919E029D
:102BD0008815990509F05CC04616570608F058C0DC
:102BE0008091000190910101009741F48DB79EB74B
:102BF0004091040150910501841B950BE817F907DA
:102C000008F055C0F0939E02E0939D02F901718394
:102C10006083A0CF8D919C91119712966C90129722
:102C200013967C901397A815B90559F56C0142E0ED
:102C3000C40ED11CCA14DB0420F1AC014A195B0993
:102C4000DA011296159780F0628273825183408375
:102C5000D9016D937C93E114F10471F0D7011396BF
:102C6000FC93EE93129776CF22968C0F9D1FF9015D
:102C700091838083F301EFCFF093A002E0939F0252
:102C800069CF4816590608F42C017D01D3019ACF6B
:102C9000CB010E9478147C01009749F0AE01B80185
:102CA0000E945A16C8010E941415870153CF10E0E4
:102CB00000E050CFFB01DC0102C001900D924150B9
:102CC0005040D8F70895FB01DC0101900D920020DF
:102CD000E1F70895F894FFCF0000A102800033339C
:102CE00013403D0A573ED7A3F0BE33331340EC5197
:102CF000383F7B14AEBE3333134014AE073FAE47AC
:102D0000E1BE000000003B029B01C8018802F901FE
:102D1000D701EB010D0A00526F3A20006E616E0080
:102D2000696E66006F766600206B6F686D004465A3
:102D300076696365206E6F742063616C696272618D
:102D40007465642C2063616C6C204D51323A3A6298
:102D50006567696E206265666F7265207265616481
:102D6000696E6720616E792076616C75652E000052
:107800000C94343C0C94513C0C94513C0C94513CE1
:107810000C94513C0C94513C0C94513C0C94513CB4
:107820000C94513C0C94513C0C94513C0C94513CA4
:107830000C94513C0C94513C0C94513C0C94513C94
:107840000C94513C0C94513C0C94513C0C94513C84
:107850000C94513C0C94513C0C94513C0C94513C74
:107860000C94513C0C94513C11241FBECFEFD8E036
:10787000DEBFCDBF11E0A0E0B1E0ECE9FFE702C060
:1078800005900D92A230B107D9F712E0A2E0B1E065
:1078900001C01D92AD30B107E1F70E942D3D0C945F
:1078A000CC3F0C94003C982F959595959595959582
:1078B000905D8F708A307CF0282F295A8091C0000B
:1078C00085FFFCCF9093C6008091C00085FFFCCF60
:1078D0002093C6000895282F205DF0CF982F809127
:1078E000C00085FFFCCF9093C6000895EF92FF92F1
:1078F0000F931F93EE24FF2487018091C00087FD22
:1079000017C00894E11CF11C011D111D81E4E8164B
:1079100082E4F8068FE0080780E0180770F3E09132
:107920000401F091050109958091C00087FFE9CF1E
:107930008091C6001F910F91FF90EF9008950E94D3
:10794000763C982F8091C00085FFFCCF9093C600B5
:1079500091362CF490330CF09053892F089597555D
:10796000892F08951F930E949F3C182F0E949F3CCF
:107970001295107F810F1F9108951F93182F882350
:1079800021F00E94763C1150E1F71F9108951F935A
:10799000182F0E94763C803249F0809103018F5F5E
:1079A000809303018530C1F01F9108958091C0003C
:1079B00085FFFCCF84E18093C6008091C00085FFE5
:1079C000FCCF1093C6008091C00085FFFCCF80E102
:1079D0008093C6001F910895E0910401F091050184
:1079E00009951F9108950E94763C803241F0809164
:1079F00003018F5F80930301853081F008958091AA
:107A0000C00085FFFCCF84E18093C6008091C00058
:107A100085FFFCCF80E18093C6000895E0910401CA
:107A2000F09105010995089540E951E08823A1F0FE
:107A30002D9A28EE33E0FA013197F1F721503040CA
:107A4000D1F72D9828EE33E0FA013197F1F7215064
:107A50003040D1F7815061F708953F924F925F9285
:107A60006F927F928F929F92AF92BF92CF92DF924E
:107A7000EF92FF920F931F93CF93DF93000080E16B
:107A80008093C4001092C50088E18093C10086E015
:107A90008093C2005098589A259A81E00E94143D24
:107AA00024E1F22E9EE1E92E85E9D82E0FE0C02ECA
:107AB00010E1B12EAA24A394B1E49B2EA6E58A2E50
:107AC000F2E57F2EE0E26E2E79E4572E63E5462E36
:107AD00050E5352E0E94763C8033B1F18133B9F107
:107AE000803409F46FC0813409F476C0823409F41B
:107AF00085C0853409F488C0803531F1823521F1A3
:107B0000813511F1853509F485C0863509F48DC0BC
:107B1000843609F496C0843709F403C1853709F423
:107B200072C1863709F466C0809103018F5F80932C
:107B30000301853079F6E0910401F0910501099582
:107B40000E94763C803351F60E94F33CC3CF0E94E2
:107B5000763C803249F78091C00085FFFCCFF092DF
:107B6000C6008091C00085FFFCCF9092C600809136
:107B7000C00085FFFCCF8092C6008091C00085FFC9
:107B8000FCCF7092C6008091C00085FFFCCF609250
:107B9000C6008091C00085FFFCCF5092C600809146
:107BA000C00085FFFCCF4092C6008091C00085FFD9
:107BB000FCCF3092C6008091C00085FFFCCFB09210
:107BC000C60088CF0E94763C863808F4BDCF0E945C
:107BD000763C0E94F33C7ECF0E94763C803809F4CC
:107BE0009CC0813809F40BC1823809F43CC1883942
:107BF00009F48FC080E00E94C73C6CCF84E10E94F2
:107C0000BD3C0E94F33C66CF85E00E94BD3C0E94D3
:107C1000F33C60CF0E94763C809306010E94763C44
:107C2000809307010E94F33C55CF0E94763C80333D
:107C300009F41DC183E00E94BD3C80E00E94C73C66
:107C400049CF0E94763C809309020E94763C809343
:107C5000080280910C028E7F80930C020E94763C79
:107C6000853409F415C18091080290910902892B8D
:107C700089F000E010E00E94763CF801E85FFE4FDA
:107C800080830F5F1F4F80910802909109020817AF
:107C9000190788F30E94763C803209F045CF809125
:107CA0000C0280FF01C16091060170910701660F0F
:107CB000771F7093070160930601A0910802B091AD
:107CC00009021097C9F0E8E0F1E09B01AD014E0F09
:107CD0005F1FF999FECF32BD21BD819180BDFA9A17
:107CE000F99A2F5F3F4FE417F50799F76A0F7B1F4B
:107CF00070930701609306018091C00085FFFCCF5F
:107D0000F092C6008091C00085FFFCCFB092C60003
:107D1000E1CE83E00E94C73CDDCE82E00E94C73CFA
:107D2000D9CE0E94763C809309020E94763C8093D3
:107D300008028091060190910701880F991F909386
:107D40000701809306010E94763C853409F4A6C0A1
:107D500080910C028E7F80930C020E94763C8032D0
:107D600009F0B8CE8091C00085FFFCCFF092C6002C
:107D7000609108027091090261157105B9F140E046
:107D800050E080910C02A82FA170B82FB27011C0E2
:107D9000BB2309F45CC0E0910601F0910701319624
:107DA000F0930701E09306014F5F5F4F46175707B7
:107DB000E8F4AA2369F3F999FECF209106013091E6
:107DC000070132BD21BDF89A90B58091C00085FFB2
:107DD000FCCF9093C6002F5F3F4F30930701209355
:107DE00006014F5F5F4F4617570718F38091C00099
:107DF00085FDE5CE8091C00085FFF8CFE0CE81E023
:107E00000E94C73C67CE0E94763C803209F08CCE3F
:107E10008091C00085FFFCCFF092C6008091C00029
:107E200085FFFCCFE092C6008091C00085FFFCCFAB
:107E3000D092C6008091C00085FFFCCFC092C600E2
:107E40008091C00085FFFCCFB092C60043CEE09188
:107E50000601F091070194918091C00085FFFCCF4D
:107E60009093C6009CCF80E10E94C73C33CE0E9415
:107E7000763C0E94763C182F0E94763C112309F430
:107E800083C0113009F484C08FE00E94C73C22CE29
:107E900080910C02816080930C02E5CE80910C02EF
:107EA000816080930C0259CF809107018823880F4D
:107EB000880B8A2180930B02809106019091070123
:107EC000880F991F90930701809306018091080203
:107ED00080FF09C080910802909109020196909359
:107EE000090280930802F894F999FECF1127E091D6
:107EF0000601F0910701C8E0D1E08091080290915D
:107F00000902103091F40091570001700130D9F34B
:107F100003E000935700E89500915700017001308D
:107F2000D9F301E100935700E89509901990009169
:107F3000570001700130D9F301E000935700E89534
:107F40001395103498F011270091570001700130FB
:107F5000D9F305E000935700E895009157000170B0
:107F60000130D9F301E100935700E895329602976A
:107F700009F0C7CF103011F00296E5CF112480919F
:107F8000C00085FFB9CEBCCE8EE10E94C73CA2CD19
:0E7F900085E90E94C73C9ECDF894FFCF80008B
:00000001FF
